{
  "_format": "hh-sol-artifact-1",
  "contractName": "MemberNFT",
  "sourceName": "contracts/MemberNFT.sol",
  "abi": [
    {
      "inputs": [],
      "stateMutability": "nonpayable",
      "type": "constructor"
    },
    {
      "anonymous": false,
      "inputs": [
        {
          "indexed": true,
          "internalType": "address",
          "name": "owner",
          "type": "address"
        },
        {
          "indexed": true,
          "internalType": "address",
          "name": "approved",
          "type": "address"
        },
        {
          "indexed": true,
          "internalType": "uint256",
          "name": "tokenId",
          "type": "uint256"
        }
      ],
      "name": "Approval",
      "type": "event"
    },
    {
      "anonymous": false,
      "inputs": [
        {
          "indexed": true,
          "internalType": "address",
          "name": "owner",
          "type": "address"
        },
        {
          "indexed": true,
          "internalType": "address",
          "name": "operator",
          "type": "address"
        },
        {
          "indexed": false,
          "internalType": "bool",
          "name": "approved",
          "type": "bool"
        }
      ],
      "name": "ApprovalForAll",
      "type": "event"
    },
    {
      "anonymous": false,
      "inputs": [
        {
          "indexed": false,
          "internalType": "address",
          "name": "sender",
          "type": "address"
        },
        {
          "indexed": false,
          "internalType": "uint256",
          "name": "tokenId",
          "type": "uint256"
        }
      ],
      "name": "NewEpicNFTMinted",
      "type": "event"
    },
    {
      "anonymous": false,
      "inputs": [
        {
          "indexed": true,
          "internalType": "address",
          "name": "previousOwner",
          "type": "address"
        },
        {
          "indexed": true,
          "internalType": "address",
          "name": "newOwner",
          "type": "address"
        }
      ],
      "name": "OwnershipTransferred",
      "type": "event"
    },
    {
      "anonymous": false,
      "inputs": [
        {
          "indexed": true,
          "internalType": "address",
          "name": "from",
          "type": "address"
        },
        {
          "indexed": true,
          "internalType": "address",
          "name": "to",
          "type": "address"
        },
        {
          "indexed": true,
          "internalType": "uint256",
          "name": "tokenId",
          "type": "uint256"
        }
      ],
      "name": "Transfer",
      "type": "event"
    },
    {
      "inputs": [
        {
          "internalType": "address",
          "name": "to",
          "type": "address"
        },
        {
          "internalType": "uint256",
          "name": "tokenId",
          "type": "uint256"
        }
      ],
      "name": "approve",
      "outputs": [],
      "stateMutability": "nonpayable",
      "type": "function"
    },
    {
      "inputs": [
        {
          "internalType": "address",
          "name": "owner",
          "type": "address"
        }
      ],
      "name": "balanceOf",
      "outputs": [
        {
          "internalType": "uint256",
          "name": "",
          "type": "uint256"
        }
      ],
      "stateMutability": "view",
      "type": "function"
    },
    {
      "inputs": [
        {
          "internalType": "uint256",
          "name": "tokenId",
          "type": "uint256"
        }
      ],
      "name": "getApproved",
      "outputs": [
        {
          "internalType": "address",
          "name": "",
          "type": "address"
        }
      ],
      "stateMutability": "view",
      "type": "function"
    },
    {
      "inputs": [
        {
          "internalType": "address",
          "name": "owner",
          "type": "address"
        },
        {
          "internalType": "address",
          "name": "operator",
          "type": "address"
        }
      ],
      "name": "isApprovedForAll",
      "outputs": [
        {
          "internalType": "bool",
          "name": "",
          "type": "bool"
        }
      ],
      "stateMutability": "view",
      "type": "function"
    },
    {
      "inputs": [
        {
          "internalType": "address",
          "name": "recipient",
          "type": "address"
        },
        {
          "internalType": "string",
          "name": "tokenURI",
          "type": "string"
        }
      ],
      "name": "mintNFT",
      "outputs": [
        {
          "internalType": "uint256",
          "name": "",
          "type": "uint256"
        }
      ],
      "stateMutability": "nonpayable",
      "type": "function"
    },
    {
      "inputs": [
        {
          "internalType": "string",
          "name": "tokenURI",
          "type": "string"
        }
      ],
      "name": "mintNFTForYourself",
      "outputs": [],
      "stateMutability": "nonpayable",
      "type": "function"
    },
    {
      "inputs": [],
      "name": "name",
      "outputs": [
        {
          "internalType": "string",
          "name": "",
          "type": "string"
        }
      ],
      "stateMutability": "view",
      "type": "function"
    },
    {
      "inputs": [],
      "name": "owner",
      "outputs": [
        {
          "internalType": "address",
          "name": "",
          "type": "address"
        }
      ],
      "stateMutability": "view",
      "type": "function"
    },
    {
      "inputs": [
        {
          "internalType": "uint256",
          "name": "tokenId",
          "type": "uint256"
        }
      ],
      "name": "ownerOf",
      "outputs": [
        {
          "internalType": "address",
          "name": "",
          "type": "address"
        }
      ],
      "stateMutability": "view",
      "type": "function"
    },
    {
      "inputs": [],
      "name": "renounceOwnership",
      "outputs": [],
      "stateMutability": "nonpayable",
      "type": "function"
    },
    {
      "inputs": [
        {
          "internalType": "address",
          "name": "from",
          "type": "address"
        },
        {
          "internalType": "address",
          "name": "to",
          "type": "address"
        },
        {
          "internalType": "uint256",
          "name": "tokenId",
          "type": "uint256"
        }
      ],
      "name": "safeTransferFrom",
      "outputs": [],
      "stateMutability": "nonpayable",
      "type": "function"
    },
    {
      "inputs": [
        {
          "internalType": "address",
          "name": "from",
          "type": "address"
        },
        {
          "internalType": "address",
          "name": "to",
          "type": "address"
        },
        {
          "internalType": "uint256",
          "name": "tokenId",
          "type": "uint256"
        },
        {
          "internalType": "bytes",
          "name": "_data",
          "type": "bytes"
        }
      ],
      "name": "safeTransferFrom",
      "outputs": [],
      "stateMutability": "nonpayable",
      "type": "function"
    },
    {
      "inputs": [
        {
          "internalType": "address",
          "name": "operator",
          "type": "address"
        },
        {
          "internalType": "bool",
          "name": "approved",
          "type": "bool"
        }
      ],
      "name": "setApprovalForAll",
      "outputs": [],
      "stateMutability": "nonpayable",
      "type": "function"
    },
    {
      "inputs": [
        {
          "internalType": "bytes4",
          "name": "interfaceId",
          "type": "bytes4"
        }
      ],
      "name": "supportsInterface",
      "outputs": [
        {
          "internalType": "bool",
          "name": "",
          "type": "bool"
        }
      ],
      "stateMutability": "view",
      "type": "function"
    },
    {
      "inputs": [],
      "name": "symbol",
      "outputs": [
        {
          "internalType": "string",
          "name": "",
          "type": "string"
        }
      ],
      "stateMutability": "view",
      "type": "function"
    },
    {
      "inputs": [
        {
          "internalType": "uint256",
          "name": "tokenId",
          "type": "uint256"
        }
      ],
      "name": "tokenURI",
      "outputs": [
        {
          "internalType": "string",
          "name": "",
          "type": "string"
        }
      ],
      "stateMutability": "view",
      "type": "function"
    },
    {
      "inputs": [
        {
          "internalType": "address",
          "name": "from",
          "type": "address"
        },
        {
          "internalType": "address",
          "name": "to",
          "type": "address"
        },
        {
          "internalType": "uint256",
          "name": "tokenId",
          "type": "uint256"
        }
      ],
      "name": "transferFrom",
      "outputs": [],
      "stateMutability": "nonpayable",
      "type": "function"
    },
    {
      "inputs": [
        {
          "internalType": "address",
          "name": "newOwner",
          "type": "address"
        }
      ],
      "name": "transferOwnership",
      "outputs": [],
      "stateMutability": "nonpayable",
      "type": "function"
    }
  ],
  "bytecode": "0x60806040523480156200001157600080fd5b506040518060400160405280601681526020017f43727970746f61636164656d794d656d6265724e4654000000000000000000008152506040518060400160405280600381526020017f43414d0000000000000000000000000000000000000000000000000000000000815250816000908051906020019062000096929190620001a6565b508060019080519060200190620000af929190620001a6565b505050620000d2620000c6620000d860201b60201c565b620000e060201b60201c565b620002bb565b600033905090565b6000600760009054906101000a900473ffffffffffffffffffffffffffffffffffffffff16905081600760006101000a81548173ffffffffffffffffffffffffffffffffffffffff021916908373ffffffffffffffffffffffffffffffffffffffff1602179055508173ffffffffffffffffffffffffffffffffffffffff168173ffffffffffffffffffffffffffffffffffffffff167f8be0079c531659141344cd1fd0a4f28419497f9722a3daafe3b4186f6b6457e060405160405180910390a35050565b828054620001b49062000256565b90600052602060002090601f016020900481019282620001d8576000855562000224565b82601f10620001f357805160ff191683800117855562000224565b8280016001018555821562000224579182015b828111156200022357825182559160200191906001019062000206565b5b50905062000233919062000237565b5090565b5b808211156200025257600081600090555060010162000238565b5090565b600060028204905060018216806200026f57607f821691505b602082108114156200028657620002856200028c565b5b50919050565b7f4e487b7100000000000000000000000000000000000000000000000000000000600052602260045260246000fd5b6130c380620002cb6000396000f3fe608060405234801561001057600080fd5b50600436106101165760003560e01c8063715018a6116100a2578063b88d4fde11610071578063b88d4fde146102cb578063c87b56dd146102e7578063e985e9c514610317578063eacabe1414610347578063f2fde38b1461037757610116565b8063715018a6146102695780638da5cb5b1461027357806395d89b4114610291578063a22cb465146102af57610116565b806323b872dd116100e957806323b872dd146101b557806342842e0e146101d157806342ec8cf2146101ed5780636352211e1461020957806370a082311461023957610116565b806301ffc9a71461011b57806306fdde031461014b578063081812fc14610169578063095ea7b314610199575b600080fd5b610135600480360381019061013091906120a4565b610393565b6040516101429190612978565b60405180910390f35b610153610475565b6040516101609190612993565b60405180910390f35b610183600480360381019061017e9190612137565b610507565b60405161019091906128e8565b60405180910390f35b6101b360048036038101906101ae9190612068565b61058c565b005b6101cf60048036038101906101ca9190611f0e565b6106a4565b005b6101eb60048036038101906101e69190611f0e565b610704565b005b610207600480360381019061020291906120f6565b610724565b005b610223600480360381019061021e9190612137565b61078d565b60405161023091906128e8565b60405180910390f35b610253600480360381019061024e9190611ea9565b61083f565b6040516102609190612c33565b60405180910390f35b6102716108f7565b005b61027b61097f565b60405161028891906128e8565b60405180910390f35b6102996109a9565b6040516102a69190612993565b60405180910390f35b6102c960048036038101906102c49190611fd8565b610a3b565b005b6102e560048036038101906102e09190611f5d565b610a51565b005b61030160048036038101906102fc9190612137565b610ab3565b60405161030e9190612993565b60405180910390f35b610331600480360381019061032c9190611ed2565b610c05565b60405161033e9190612978565b60405180910390f35b610361600480360381019061035c9190612014565b610c99565b60405161036e9190612c33565b60405180910390f35b610391600480360381019061038c9190611ea9565b610d2d565b005b60007f80ac58cd000000000000000000000000000000000000000000000000000000007bffffffffffffffffffffffffffffffffffffffffffffffffffffffff1916827bffffffffffffffffffffffffffffffffffffffffffffffffffffffff1916148061045e57507f5b5e139f000000000000000000000000000000000000000000000000000000007bffffffffffffffffffffffffffffffffffffffffffffffffffffffff1916827bffffffffffffffffffffffffffffffffffffffffffffffffffffffff1916145b8061046e575061046d82610e25565b5b9050919050565b60606000805461048490612e93565b80601f01602080910402602001604051908101604052809291908181526020018280546104b090612e93565b80156104fd5780601f106104d2576101008083540402835291602001916104fd565b820191906000526020600020905b8154815290600101906020018083116104e057829003601f168201915b5050505050905090565b600061051282610e8f565b610551576040517f08c379a000000000000000000000000000000000000000000000000000000000815260040161054890612b73565b60405180910390fd5b6004600083815260200190815260200160002060009054906101000a900473ffffffffffffffffffffffffffffffffffffffff169050919050565b60006105978261078d565b90508073ffffffffffffffffffffffffffffffffffffffff168373ffffffffffffffffffffffffffffffffffffffff161415610608576040517f08c379a00000000000000000000000000000000000000000000000000000000081526004016105ff90612bf3565b60405180910390fd5b8073ffffffffffffffffffffffffffffffffffffffff16610627610efb565b73ffffffffffffffffffffffffffffffffffffffff161480610656575061065581610650610efb565b610c05565b5b610695576040517f08c379a000000000000000000000000000000000000000000000000000000000815260040161068c90612ab3565b60405180910390fd5b61069f8383610f03565b505050565b6106b56106af610efb565b82610fbc565b6106f4576040517f08c379a00000000000000000000000000000000000000000000000000000000081526004016106eb90612c13565b60405180910390fd5b6106ff83838361109a565b505050565b61071f83838360405180602001604052806000815250610a51565b505050565b600061073060086112f6565b905061073c3382611304565b61074681836114d2565b6107506008611546565b7febb98688741ffa4c7589bf325de30cf7becb63de567842e1ccdb6cb949fdc82c338260405161078192919061294f565b60405180910390a15050565b6000806002600084815260200190815260200160002060009054906101000a900473ffffffffffffffffffffffffffffffffffffffff169050600073ffffffffffffffffffffffffffffffffffffffff168173ffffffffffffffffffffffffffffffffffffffff161415610836576040517f08c379a000000000000000000000000000000000000000000000000000000000815260040161082d90612af3565b60405180910390fd5b80915050919050565b60008073ffffffffffffffffffffffffffffffffffffffff168273ffffffffffffffffffffffffffffffffffffffff1614156108b0576040517f08c379a00000000000000000000000000000000000000000000000000000000081526004016108a790612ad3565b60405180910390fd5b600360008373ffffffffffffffffffffffffffffffffffffffff1673ffffffffffffffffffffffffffffffffffffffff168152602001908152602001600020549050919050565b6108ff610efb565b73ffffffffffffffffffffffffffffffffffffffff1661091d61097f565b73ffffffffffffffffffffffffffffffffffffffff1614610973576040517f08c379a000000000000000000000000000000000000000000000000000000000815260040161096a90612b93565b60405180910390fd5b61097d600061155c565b565b6000600760009054906101000a900473ffffffffffffffffffffffffffffffffffffffff16905090565b6060600180546109b890612e93565b80601f01602080910402602001604051908101604052809291908181526020018280546109e490612e93565b8015610a315780601f10610a0657610100808354040283529160200191610a31565b820191906000526020600020905b815481529060010190602001808311610a1457829003601f168201915b5050505050905090565b610a4d610a46610efb565b8383611622565b5050565b610a62610a5c610efb565b83610fbc565b610aa1576040517f08c379a0000000000000000000000000000000000000000000000000000000008152600401610a9890612c13565b60405180910390fd5b610aad8484848461178f565b50505050565b6060610abe82610e8f565b610afd576040517f08c379a0000000000000000000000000000000000000000000000000000000008152600401610af490612b53565b60405180910390fd5b6000600660008481526020019081526020016000208054610b1d90612e93565b80601f0160208091040260200160405190810160405280929190818152602001828054610b4990612e93565b8015610b965780601f10610b6b57610100808354040283529160200191610b96565b820191906000526020600020905b815481529060010190602001808311610b7957829003601f168201915b505050505090506000610ba76117eb565b9050600081511415610bbd578192505050610c00565b600082511115610bf2578082604051602001610bda9291906128c4565b60405160208183030381529060405292505050610c00565b610bfb84611802565b925050505b919050565b6000600560008473ffffffffffffffffffffffffffffffffffffffff1673ffffffffffffffffffffffffffffffffffffffff16815260200190815260200160002060008373ffffffffffffffffffffffffffffffffffffffff1673ffffffffffffffffffffffffffffffffffffffff16815260200190815260200160002060009054906101000a900460ff16905092915050565b6000610ca56008611546565b6000610cb160086112f6565b9050610cbd8482611304565b610cc781846114d2565b610cea6040518060600160405280602581526020016130696025913982866118a9565b7febb98688741ffa4c7589bf325de30cf7becb63de567842e1ccdb6cb949fdc82c3382604051610d1b92919061294f565b60405180910390a18091505092915050565b610d35610efb565b73ffffffffffffffffffffffffffffffffffffffff16610d5361097f565b73ffffffffffffffffffffffffffffffffffffffff1614610da9576040517f08c379a0000000000000000000000000000000000000000000000000000000008152600401610da090612b93565b60405180910390fd5b600073ffffffffffffffffffffffffffffffffffffffff168173ffffffffffffffffffffffffffffffffffffffff161415610e19576040517f08c379a0000000000000000000000000000000000000000000000000000000008152600401610e1090612a13565b60405180910390fd5b610e228161155c565b50565b60007f01ffc9a7000000000000000000000000000000000000000000000000000000007bffffffffffffffffffffffffffffffffffffffffffffffffffffffff1916827bffffffffffffffffffffffffffffffffffffffffffffffffffffffff1916149050919050565b60008073ffffffffffffffffffffffffffffffffffffffff166002600084815260200190815260200160002060009054906101000a900473ffffffffffffffffffffffffffffffffffffffff1673ffffffffffffffffffffffffffffffffffffffff1614159050919050565b600033905090565b816004600083815260200190815260200160002060006101000a81548173ffffffffffffffffffffffffffffffffffffffff021916908373ffffffffffffffffffffffffffffffffffffffff160217905550808273ffffffffffffffffffffffffffffffffffffffff16610f768361078d565b73ffffffffffffffffffffffffffffffffffffffff167f8c5be1e5ebec7d5bd14f71427d1e84f3dd0314c0f7b2291e5b200ac8c7c3b92560405160405180910390a45050565b6000610fc782610e8f565b611006576040517f08c379a0000000000000000000000000000000000000000000000000000000008152600401610ffd90612a93565b60405180910390fd5b60006110118361078d565b90508073ffffffffffffffffffffffffffffffffffffffff168473ffffffffffffffffffffffffffffffffffffffff16148061108057508373ffffffffffffffffffffffffffffffffffffffff1661106884610507565b73ffffffffffffffffffffffffffffffffffffffff16145b8061109157506110908185610c05565b5b91505092915050565b8273ffffffffffffffffffffffffffffffffffffffff166110ba8261078d565b73ffffffffffffffffffffffffffffffffffffffff1614611110576040517f08c379a000000000000000000000000000000000000000000000000000000000815260040161110790612bb3565b60405180910390fd5b600073ffffffffffffffffffffffffffffffffffffffff168273ffffffffffffffffffffffffffffffffffffffff161415611180576040517f08c379a000000000000000000000000000000000000000000000000000000000815260040161117790612a53565b60405180910390fd5b61118b838383611948565b611196600082610f03565b6001600360008573ffffffffffffffffffffffffffffffffffffffff1673ffffffffffffffffffffffffffffffffffffffff16815260200190815260200160002060008282546111e69190612da9565b925050819055506001600360008473ffffffffffffffffffffffffffffffffffffffff1673ffffffffffffffffffffffffffffffffffffffff168152602001908152602001600020600082825461123d9190612d22565b92505081905550816002600083815260200190815260200160002060006101000a81548173ffffffffffffffffffffffffffffffffffffffff021916908373ffffffffffffffffffffffffffffffffffffffff160217905550808273ffffffffffffffffffffffffffffffffffffffff168473ffffffffffffffffffffffffffffffffffffffff167fddf252ad1be2c89b69c2b068fc378daa952ba7f163c4a11628f55a4df523b3ef60405160405180910390a4505050565b600081600001549050919050565b600073ffffffffffffffffffffffffffffffffffffffff168273ffffffffffffffffffffffffffffffffffffffff161415611374576040517f08c379a000000000000000000000000000000000000000000000000000000000815260040161136b90612b33565b60405180910390fd5b61137d81610e8f565b156113bd576040517f08c379a00000000000000000000000000000000000000000000000000000000081526004016113b490612a33565b60405180910390fd5b6113c960008383611948565b6001600360008473ffffffffffffffffffffffffffffffffffffffff1673ffffffffffffffffffffffffffffffffffffffff16815260200190815260200160002060008282546114199190612d22565b92505081905550816002600083815260200190815260200160002060006101000a81548173ffffffffffffffffffffffffffffffffffffffff021916908373ffffffffffffffffffffffffffffffffffffffff160217905550808273ffffffffffffffffffffffffffffffffffffffff16600073ffffffffffffffffffffffffffffffffffffffff167fddf252ad1be2c89b69c2b068fc378daa952ba7f163c4a11628f55a4df523b3ef60405160405180910390a45050565b6114db82610e8f565b61151a576040517f08c379a000000000000000000000000000000000000000000000000000000000815260040161151190612b13565b60405180910390fd5b80600660008481526020019081526020016000209080519060200190611541929190611ccd565b505050565b6001816000016000828254019250508190555050565b6000600760009054906101000a900473ffffffffffffffffffffffffffffffffffffffff16905081600760006101000a81548173ffffffffffffffffffffffffffffffffffffffff021916908373ffffffffffffffffffffffffffffffffffffffff1602179055508173ffffffffffffffffffffffffffffffffffffffff168173ffffffffffffffffffffffffffffffffffffffff167f8be0079c531659141344cd1fd0a4f28419497f9722a3daafe3b4186f6b6457e060405160405180910390a35050565b8173ffffffffffffffffffffffffffffffffffffffff168373ffffffffffffffffffffffffffffffffffffffff161415611691576040517f08c379a000000000000000000000000000000000000000000000000000000000815260040161168890612a73565b60405180910390fd5b80600560008573ffffffffffffffffffffffffffffffffffffffff1673ffffffffffffffffffffffffffffffffffffffff16815260200190815260200160002060008473ffffffffffffffffffffffffffffffffffffffff1673ffffffffffffffffffffffffffffffffffffffff16815260200190815260200160002060006101000a81548160ff0219169083151502179055508173ffffffffffffffffffffffffffffffffffffffff168373ffffffffffffffffffffffffffffffffffffffff167f17307eab39ab6107e8899845ad3d59bd9653f200f220920489ca2b5937696c31836040516117829190612978565b60405180910390a3505050565b61179a84848461109a565b6117a68484848461194d565b6117e5576040517f08c379a00000000000000000000000000000000000000000000000000000000081526004016117dc906129f3565b60405180910390fd5b50505050565b606060405180602001604052806000815250905090565b606061180d82610e8f565b61184c576040517f08c379a000000000000000000000000000000000000000000000000000000000815260040161184390612bd3565b60405180910390fd5b60006118566117eb565b9050600081511161187657604051806020016040528060008152506118a1565b8061188084611ae4565b6040516020016118919291906128c4565b6040516020818303038152906040525b915050919050565b6119438383836040516024016118c1939291906129b5565b6040516020818303038152906040527fe3849f79000000000000000000000000000000000000000000000000000000007bffffffffffffffffffffffffffffffffffffffffffffffffffffffff19166020820180517bffffffffffffffffffffffffffffffffffffffffffffffffffffffff8381831617835250505050611c91565b505050565b505050565b600061196e8473ffffffffffffffffffffffffffffffffffffffff16611cba565b15611ad7578373ffffffffffffffffffffffffffffffffffffffff1663150b7a02611997610efb565b8786866040518563ffffffff1660e01b81526004016119b99493929190612903565b602060405180830381600087803b1580156119d357600080fd5b505af1925050508015611a0457506040513d601f19601f82011682018060405250810190611a0191906120cd565b60015b611a87573d8060008114611a34576040519150601f19603f3d011682016040523d82523d6000602084013e611a39565b606091505b50600081511415611a7f576040517f08c379a0000000000000000000000000000000000000000000000000000000008152600401611a76906129f3565b60405180910390fd5b805181602001fd5b63150b7a0260e01b7bffffffffffffffffffffffffffffffffffffffffffffffffffffffff1916817bffffffffffffffffffffffffffffffffffffffffffffffffffffffff191614915050611adc565b600190505b949350505050565b60606000821415611b2c576040518060400160405280600181526020017f30000000000000000000000000000000000000000000000000000000000000008152509050611c8c565b600082905060005b60008214611b5e578080611b4790612ec5565b915050600a82611b579190612d78565b9150611b34565b60008167ffffffffffffffff811115611ba0577f4e487b7100000000000000000000000000000000000000000000000000000000600052604160045260246000fd5b6040519080825280601f01601f191660200182016040528015611bd25781602001600182028036833780820191505090505b5090505b60008514611c8557600182611beb9190612da9565b9150600a85611bfa9190612f0e565b6030611c069190612d22565b60f81b818381518110611c42577f4e487b7100000000000000000000000000000000000000000000000000000000600052603260045260246000fd5b60200101907effffffffffffffffffffffffffffffffffffffffffffffffffffffffffffff1916908160001a905350600a85611c7e9190612d78565b9450611bd6565b8093505050505b919050565b60008151905060006a636f6e736f6c652e6c6f679050602083016000808483855afa5050505050565b600080823b905060008111915050919050565b828054611cd990612e93565b90600052602060002090601f016020900481019282611cfb5760008555611d42565b82601f10611d1457805160ff1916838001178555611d42565b82800160010185558215611d42579182015b82811115611d41578251825591602001919060010190611d26565b5b509050611d4f9190611d53565b5090565b5b80821115611d6c576000816000905550600101611d54565b5090565b6000611d83611d7e84612c7f565b612c4e565b905082815260208101848484011115611d9b57600080fd5b611da6848285612e51565b509392505050565b6000611dc1611dbc84612caf565b612c4e565b905082815260208101848484011115611dd957600080fd5b611de4848285612e51565b509392505050565b600081359050611dfb8161300c565b92915050565b600081359050611e1081613023565b92915050565b600081359050611e258161303a565b92915050565b600081519050611e3a8161303a565b92915050565b600082601f830112611e5157600080fd5b8135611e61848260208601611d70565b91505092915050565b600082601f830112611e7b57600080fd5b8135611e8b848260208601611dae565b91505092915050565b600081359050611ea381613051565b92915050565b600060208284031215611ebb57600080fd5b6000611ec984828501611dec565b91505092915050565b60008060408385031215611ee557600080fd5b6000611ef385828601611dec565b9250506020611f0485828601611dec565b9150509250929050565b600080600060608486031215611f2357600080fd5b6000611f3186828701611dec565b9350506020611f4286828701611dec565b9250506040611f5386828701611e94565b9150509250925092565b60008060008060808587031215611f7357600080fd5b6000611f8187828801611dec565b9450506020611f9287828801611dec565b9350506040611fa387828801611e94565b925050606085013567ffffffffffffffff811115611fc057600080fd5b611fcc87828801611e40565b91505092959194509250565b60008060408385031215611feb57600080fd5b6000611ff985828601611dec565b925050602061200a85828601611e01565b9150509250929050565b6000806040838503121561202757600080fd5b600061203585828601611dec565b925050602083013567ffffffffffffffff81111561205257600080fd5b61205e85828601611e6a565b9150509250929050565b6000806040838503121561207b57600080fd5b600061208985828601611dec565b925050602061209a85828601611e94565b9150509250929050565b6000602082840312156120b657600080fd5b60006120c484828501611e16565b91505092915050565b6000602082840312156120df57600080fd5b60006120ed84828501611e2b565b91505092915050565b60006020828403121561210857600080fd5b600082013567ffffffffffffffff81111561212257600080fd5b61212e84828501611e6a565b91505092915050565b60006020828403121561214957600080fd5b600061215784828501611e94565b91505092915050565b61216981612ddd565b82525050565b61217881612def565b82525050565b600061218982612cdf565b6121938185612cf5565b93506121a3818560208601612e60565b6121ac81612ffb565b840191505092915050565b60006121c282612cea565b6121cc8185612d06565b93506121dc818560208601612e60565b6121e581612ffb565b840191505092915050565b60006121fb82612cea565b6122058185612d17565b9350612215818560208601612e60565b80840191505092915050565b600061222e603283612d06565b91507f4552433732313a207472616e7366657220746f206e6f6e20455243373231526560008301527f63656976657220696d706c656d656e74657200000000000000000000000000006020830152604082019050919050565b6000612294602683612d06565b91507f4f776e61626c653a206e6577206f776e657220697320746865207a65726f206160008301527f64647265737300000000000000000000000000000000000000000000000000006020830152604082019050919050565b60006122fa601c83612d06565b91507f4552433732313a20746f6b656e20616c7265616479206d696e746564000000006000830152602082019050919050565b600061233a602483612d06565b91507f4552433732313a207472616e7366657220746f20746865207a65726f2061646460008301527f72657373000000000000000000000000000000000000000000000000000000006020830152604082019050919050565b60006123a0601983612d06565b91507f4552433732313a20617070726f766520746f2063616c6c6572000000000000006000830152602082019050919050565b60006123e0602c83612d06565b91507f4552433732313a206f70657261746f7220717565727920666f72206e6f6e657860008301527f697374656e7420746f6b656e00000000000000000000000000000000000000006020830152604082019050919050565b6000612446603883612d06565b91507f4552433732313a20617070726f76652063616c6c6572206973206e6f74206f7760008301527f6e6572206e6f7220617070726f76656420666f7220616c6c00000000000000006020830152604082019050919050565b60006124ac602a83612d06565b91507f4552433732313a2062616c616e636520717565727920666f7220746865207a6560008301527f726f2061646472657373000000000000000000000000000000000000000000006020830152604082019050919050565b6000612512602983612d06565b91507f4552433732313a206f776e657220717565727920666f72206e6f6e657869737460008301527f656e7420746f6b656e00000000000000000000000000000000000000000000006020830152604082019050919050565b6000612578602e83612d06565b91507f45524337323155524953746f726167653a2055524920736574206f66206e6f6e60008301527f6578697374656e7420746f6b656e0000000000000000000000000000000000006020830152604082019050919050565b60006125de602083612d06565b91507f4552433732313a206d696e7420746f20746865207a65726f20616464726573736000830152602082019050919050565b600061261e603183612d06565b91507f45524337323155524953746f726167653a2055524920717565727920666f722060008301527f6e6f6e6578697374656e7420746f6b656e0000000000000000000000000000006020830152604082019050919050565b6000612684602c83612d06565b91507f4552433732313a20617070726f76656420717565727920666f72206e6f6e657860008301527f697374656e7420746f6b656e00000000000000000000000000000000000000006020830152604082019050919050565b60006126ea602083612d06565b91507f4f776e61626c653a2063616c6c6572206973206e6f7420746865206f776e65726000830152602082019050919050565b600061272a602983612d06565b91507f4552433732313a207472616e73666572206f6620746f6b656e2074686174206960008301527f73206e6f74206f776e00000000000000000000000000000000000000000000006020830152604082019050919050565b6000612790602f83612d06565b91507f4552433732314d657461646174613a2055524920717565727920666f72206e6f60008301527f6e6578697374656e7420746f6b656e00000000000000000000000000000000006020830152604082019050919050565b60006127f6602183612d06565b91507f4552433732313a20617070726f76616c20746f2063757272656e74206f776e6560008301527f72000000000000000000000000000000000000000000000000000000000000006020830152604082019050919050565b600061285c603183612d06565b91507f4552433732313a207472616e736665722063616c6c6572206973206e6f74206f60008301527f776e6572206e6f7220617070726f7665640000000000000000000000000000006020830152604082019050919050565b6128be81612e47565b82525050565b60006128d082856121f0565b91506128dc82846121f0565b91508190509392505050565b60006020820190506128fd6000830184612160565b92915050565b60006080820190506129186000830187612160565b6129256020830186612160565b61293260408301856128b5565b8181036060830152612944818461217e565b905095945050505050565b60006040820190506129646000830185612160565b61297160208301846128b5565b9392505050565b600060208201905061298d600083018461216f565b92915050565b600060208201905081810360008301526129ad81846121b7565b905092915050565b600060608201905081810360008301526129cf81866121b7565b90506129de60208301856128b5565b6129eb6040830184612160565b949350505050565b60006020820190508181036000830152612a0c81612221565b9050919050565b60006020820190508181036000830152612a2c81612287565b9050919050565b60006020820190508181036000830152612a4c816122ed565b9050919050565b60006020820190508181036000830152612a6c8161232d565b9050919050565b60006020820190508181036000830152612a8c81612393565b9050919050565b60006020820190508181036000830152612aac816123d3565b9050919050565b60006020820190508181036000830152612acc81612439565b9050919050565b60006020820190508181036000830152612aec8161249f565b9050919050565b60006020820190508181036000830152612b0c81612505565b9050919050565b60006020820190508181036000830152612b2c8161256b565b9050919050565b60006020820190508181036000830152612b4c816125d1565b9050919050565b60006020820190508181036000830152612b6c81612611565b9050919050565b60006020820190508181036000830152612b8c81612677565b9050919050565b60006020820190508181036000830152612bac816126dd565b9050919050565b60006020820190508181036000830152612bcc8161271d565b9050919050565b60006020820190508181036000830152612bec81612783565b9050919050565b60006020820190508181036000830152612c0c816127e9565b9050919050565b60006020820190508181036000830152612c2c8161284f565b9050919050565b6000602082019050612c4860008301846128b5565b92915050565b6000604051905081810181811067ffffffffffffffff82111715612c7557612c74612fcc565b5b8060405250919050565b600067ffffffffffffffff821115612c9a57612c99612fcc565b5b601f19601f8301169050602081019050919050565b600067ffffffffffffffff821115612cca57612cc9612fcc565b5b601f19601f8301169050602081019050919050565b600081519050919050565b600081519050919050565b600082825260208201905092915050565b600082825260208201905092915050565b600081905092915050565b6000612d2d82612e47565b9150612d3883612e47565b9250827fffffffffffffffffffffffffffffffffffffffffffffffffffffffffffffffff03821115612d6d57612d6c612f3f565b5b828201905092915050565b6000612d8382612e47565b9150612d8e83612e47565b925082612d9e57612d9d612f6e565b5b828204905092915050565b6000612db482612e47565b9150612dbf83612e47565b925082821015612dd257612dd1612f3f565b5b828203905092915050565b6000612de882612e27565b9050919050565b60008115159050919050565b60007fffffffff0000000000000000000000000000000000000000000000000000000082169050919050565b600073ffffffffffffffffffffffffffffffffffffffff82169050919050565b6000819050919050565b82818337600083830152505050565b60005b83811015612e7e578082015181840152602081019050612e63565b83811115612e8d576000848401525b50505050565b60006002820490506001821680612eab57607f821691505b60208210811415612ebf57612ebe612f9d565b5b50919050565b6000612ed082612e47565b91507fffffffffffffffffffffffffffffffffffffffffffffffffffffffffffffffff821415612f0357612f02612f3f565b5b600182019050919050565b6000612f1982612e47565b9150612f2483612e47565b925082612f3457612f33612f6e565b5b828206905092915050565b7f4e487b7100000000000000000000000000000000000000000000000000000000600052601160045260246000fd5b7f4e487b7100000000000000000000000000000000000000000000000000000000600052601260045260246000fd5b7f4e487b7100000000000000000000000000000000000000000000000000000000600052602260045260246000fd5b7f4e487b7100000000000000000000000000000000000000000000000000000000600052604160045260246000fd5b6000601f19601f8301169050919050565b61301581612ddd565b811461302057600080fd5b50565b61302c81612def565b811461303757600080fd5b50565b61304381612dfb565b811461304e57600080fd5b50565b61305a81612e47565b811461306557600080fd5b5056fe416e204e465420772f20494420257320686173206265656e206d696e74656420746f202573a26469706673582212205d568c395ddc4f3722e7a974a2cb140ac36ec0d5a7baaf18a424678320618df664736f6c63430008000033",
  "linkReferences": {},
  "deployedLinkReferences": {}
}